:100000000C942A000C943C000C943C000C943C0092
:100010000C9439020C9462020C948B020C94B4027E
:100020000C94DD020C9406030C942F030C945803DB
:100030000C943C000C943C000C943C000C943C0050
:100040000C943C000C943C000C943C000C943C0040
:100050000C943C0011241FBECFE5D8E0DEBFCDBF1D
:1000600020E0A0E6B0E001C01D92A637B207E1F79C
:100070000E94BF010C9481030C940000683008F0CA
:1000800078C04130C1F5813091F028F08230D9F04C
:10009000833029F170C02AB381E090E002C0880F5C
:1000A000991F6A95E2F7822B8ABB80E0089527B3F7
:1000B00081E090E002C0880F991F6A95E2F7822BD9
:1000C00087BB80E0089524B381E090E002C0880FF0
:1000D000991F6A95E2F7822B84BB80E0089521B3D3
:1000E00081E090E002C0880F991F6A95E2F7822BA9
:1000F00081BB80E00895411140C0813099F028F023
:100100008230E9F0833041F13AC02AB381E090E0D7
:1001100002C0880F991F6A95E2F7809582238ABBF7
:1001200080E0089527B381E090E002C0880F991F16
:100130006A95E2F78095822387BB80E0089524B317
:1001400081E090E002C0880F991F6A95E2F78095E0
:10015000822384BB80E0089521B381E090E002C057
:10016000880F991F6A95E2F78095822381BB80E012
:10017000089581E0089581E0089581E0089581E087
:100180000895683008F078C04130C1F5813091F0B1
:1001900028F08230D9F0833029F170C02BB381E090
:1001A00090E002C0880F991F6A95E2F7822B8BBB03
:1001B00080E0089528B381E090E002C0880F991F85
:1001C0006A95E2F7822B88BB80E0089525B381E031
:1001D00090E002C0880F991F6A95E2F7822B85BBD9
:1001E00080E0089522B381E090E002C0880F991F5B
:1001F0006A95E2F7822B82BB80E00895411140C0EE
:10020000813099F028F08230E9F0833041F13AC032
:100210002BB381E090E002C0880F991F6A95E2F746
:10022000809582238BBB80E0089528B381E090E025
:1002300002C0880F991F6A95E2F78095822388BBD8
:1002400080E0089525B381E090E002C0880F991FF7
:100250006A95E2F78095822385BB80E0089522B3FA
:1002600081E090E002C0880F991F6A95E2F78095BF
:10027000822382BB80E0089581E0089581E00895A3
:1002800081E0089581E008958FB780688FBF089559
:1002900041E00E94C10080E0089540E00E94C1005A
:1002A00080E008958091620090916300A0916400C5
:1002B000B09165000196A11DB11D809362009093DD
:1002C0006300A0936400B0936500883E9340A1054D
:1002D000B10569F4809161008F5F80936100109295
:1002E0006200109263001092640010926500809189
:1002F00061008230B1F490916000911112C09F5F53
:100300009093600060E081E00E944D0161E081E037
:100310000E94480162E081E00E944D01109261005C
:1003200008958130A9F490916000913089F49F5F25
:100330009093600060E00E944D0161E081E00E94C6
:100340004D0162E081E00E94480110926100089531
:100350008230A1F480916000823081F410926000BC
:1003600060E081E00E94480161E081E00E944D016F
:1003700062E081E00E944D0110926100089541E029
:1003800060E081E00E943E0041E061E081E00E9487
:100390003E0041E062E081E00E943E0041E065E015
:1003A00083E00E943E0060E081E00E9448010E94DC
:1003B000E10168E282E591E00E9400020E944401AE
:1003C000FFCF8FB58E7F8FBD8FB58D7F8FBD8EB5E3
:1003D00088608EBD8EB58F7E8EBD80E18ABD80E146
:1003E00097E29ABD89BD89B7806189BF89B7886066
:1003F00089BF8EB5887F8EBD8EB585608EBD089510
:100400006A3029F4909375008093740030C0643191
:1004100029F4909373008093720029C06E3129F4FF
:10042000909371008093700022C0683229F49093F9
:100430006F0080936E001BC0623329F490936D00AF
:1004400080936C0014C06C3329F490936B008093FC
:100450006A000DC0663429F49093690080936800A7
:1004600006C0603521F4909367008093660080E0B9
:1004700008951F920F920FB60F9211242F933F935E
:100480004F935F936F937F938F939F93AF93BF939C
:10049000EF93FF93E0917400F0917500309709F0AD
:1004A0000995FF91EF91BF91AF919F918F917F91AE
:1004B0006F915F914F913F912F910F900FBE0F90D1
:1004C0001F9018951F920F920FB60F9211242F9321
:1004D0003F934F935F936F937F938F939F93AF93CC
:1004E000BF93EF93FF93E0917200F0917300309708
:1004F00009F00995FF91EF91BF91AF919F918F9175
:100500007F916F915F914F913F912F910F900FBE0F
:100510000F901F9018951F920F920FB60F921124F3
:100520002F933F934F935F936F937F938F939F93FB
:10053000AF93BF93EF93FF93E0917000F091710040
:10054000309709F00995FF91EF91BF91AF919F917D
:100550008F917F916F915F914F913F912F910F906C
:100560000FBE0F901F9018951F920F920FB60F920B
:1005700011242F933F934F935F936F937F938F93A8
:100580009F93AF93BF93EF93FF93E0916E00F09131
:100590006F00309709F00995FF91EF91BF91AF91EE
:1005A0009F918F917F916F915F914F913F912F918B
:1005B0000F900FBE0F901F9018951F920F920FB6BD
:1005C0000F9211242F933F934F935F936F937F93D9
:1005D0008F939F93AF93BF93EF93FF93E0916C0042
:1005E000F0916D00309709F00995FF91EF91BF915F
:1005F000AF919F918F917F916F915F914F913F91BB
:100600002F910F900FBE0F901F9018951F920F9271
:100610000FB60F9211242F933F934F935F936F93D5
:100620007F938F939F93AF93BF93EF93FF93E0914B
:100630006A00F0916B00309709F00995FF91EF91F6
:10064000BF91AF919F918F917F916F915F914F91EA
:100650003F912F910F900FBE0F901F9018951F92F2
:100660000F920FB60F9211242F933F934F935F93E6
:100670006F937F938F939F93AF93BF93EF93FF936A
:10068000E0916800F0916900309709F00995FF91B9
:10069000EF91BF91AF919F918F917F916F915F91FA
:1006A0004F913F912F910F900FBE0F901F90189573
:1006B0001F920F920FB60F9211242F933F934F93D7
:1006C0005F936F937F938F939F93AF93BF93EF93BA
:1006D000FF93E0916600F0916700309709F009956B
:1006E000FF91EF91BF91AF919F918F917F916F910A
:1006F0005F914F913F912F910F900FBE0F901F90E0
:060700001895F894FFCFEC
:00000001FF
